{
  "transactions": [
    {
      "hash": "0x9cab15c8d05f129f10a5d4463acfbcef01533580247fa56705a500cc1668b3c7",
      "transactionType": "CALL",
      "contractName": null,
      "contractAddress": "0x958dbb461e039902113e65518ec64d3379fdf2e2",
      "function": "grantRole(bytes32,address)",
      "arguments": [
        "0x0000000000000000000000000000000000000000000000000000000000000000",
        "0xc91D6b060f50cf9C69F946bACc6FEF595f1f1906"
      ],
      "transaction": {
        "from": "0x56edd8e0b4ea14ca259f313291b9468553e2ae94",
        "to": "0x958dbb461e039902113e65518ec64d3379fdf2e2",
        "gas": "0x123f7",
        "value": "0x0",
        "input": "0x2f2ff15d0000000000000000000000000000000000000000000000000000000000000000000000000000000000000000c91d6b060f50cf9c69f946bacc6fef595f1f1906",
        "nonce": "0x4",
        "chainId": "0x14a34"
      },
      "additionalContracts": [],
      "isFixedGasLimit": false
    },
    {
      "hash": "0x7446db3d0b4bfc62d4d1ee331993d3740160e08bd0417b211c2b6605c7c49011",
      "transactionType": "CALL",
      "contractName": null,
      "contractAddress": "0x958dbb461e039902113e65518ec64d3379fdf2e2",
      "function": "grantRole(bytes32,address)",
      "arguments": [
        "0xae4a0595970935aa5495afbbb72e5f1f6ff1062766b4a3028c0c9b7d5cf7e345",
        "0xc91D6b060f50cf9C69F946bACc6FEF595f1f1906"
      ],
      "transaction": {
        "from": "0x56edd8e0b4ea14ca259f313291b9468553e2ae94",
        "to": "0x958dbb461e039902113e65518ec64d3379fdf2e2",
        "gas": "0x12629",
        "value": "0x0",
        "input": "0x2f2ff15dae4a0595970935aa5495afbbb72e5f1f6ff1062766b4a3028c0c9b7d5cf7e345000000000000000000000000c91d6b060f50cf9c69f946bacc6fef595f1f1906",
        "nonce": "0x5",
        "chainId": "0x14a34"
      },
      "additionalContracts": [],
      "isFixedGasLimit": false
    }
  ],
  "receipts": [
    {
      "status": "0x1",
      "cumulativeGasUsed": "0x2cf707",
      "logs": [
        {
          "address": "0x958dbb461e039902113e65518ec64d3379fdf2e2",
          "topics": [
            "0x2f8788117e7eff1d82e926ec794901d17c78024a50270940304540a733656f0d",
            "0x0000000000000000000000000000000000000000000000000000000000000000",
            "0x000000000000000000000000c91d6b060f50cf9c69f946bacc6fef595f1f1906",
            "0x00000000000000000000000056edd8e0b4ea14ca259f313291b9468553e2ae94"
          ],
          "data": "0x",
          "blockHash": "0xe0ec64526f205043830d9ece718ab579731b0c2aebf127eb0d1302475a9c07f3",
          "blockNumber": "0x2676467",
          "blockTimestamp": "0x69e227ae",
          "transactionHash": "0x9cab15c8d05f129f10a5d4463acfbcef01533580247fa56705a500cc1668b3c7",
          "transactionIndex": "0xe",
          "logIndex": "0x95",
          "removed": false
        }
      ],
      "logsBloom": "0x00000004000000100000000000000000020000040000000000200000000000000000000000000000000000000000000000000800000000000000000000000000000000000000000000000000000000000000002000000000000000000000000000000000020000000008000000000800000000000000000000000000000000000000000000000000000000000000000000000000000000000000000000000000004000000000000000000000000000000000000000000000001000000000000001000000000000000000000000000000000000000000000100000000000020000000000000000000000000000000000000000000000000000000000000000000",
      "type": "0x2",
      "transactionHash": "0x9cab15c8d05f129f10a5d4463acfbcef01533580247fa56705a500cc1668b3c7",
      "transactionIndex": "0xe",
      "blockHash": "0xe0ec64526f205043830d9ece718ab579731b0c2aebf127eb0d1302475a9c07f3",
      "blockNumber": "0x2676467",
      "gasUsed": "0xc7a3",
      "effectiveGasPrice": "0x5b8d80",
      "blobGasUsed": "0x39d0",
      "from": "0x56edd8e0b4ea14ca259f313291b9468553e2ae94",
      "to": "0x958dbb461e039902113e65518ec64d3379fdf2e2",
      "contractAddress": null,
      "daFootprintGasScalar": "0x94",
      "l1BaseFeeScalar": "0x44d",
      "l1BlobBaseFee": "0x24bec5",
      "l1BlobBaseFeeScalar": "0xa118b",
      "l1Fee": "0xd7c5842",
      "l1GasPrice": "0x247653f",
      "l1GasUsed": "0x640"
    },
    {
      "status": "0x1",
      "cumulativeGasUsed": "0x2dc02a",
      "logs": [
        {
          "address": "0x958dbb461e039902113e65518ec64d3379fdf2e2",
          "topics": [
            "0x2f8788117e7eff1d82e926ec794901d17c78024a50270940304540a733656f0d",
            "0xae4a0595970935aa5495afbbb72e5f1f6ff1062766b4a3028c0c9b7d5cf7e345",
            "0x000000000000000000000000c91d6b060f50cf9c69f946bacc6fef595f1f1906",
            "0x00000000000000000000000056edd8e0b4ea14ca259f313291b9468553e2ae94"
          ],
          "data": "0x",
          "blockHash": "0xe0ec64526f205043830d9ece718ab579731b0c2aebf127eb0d1302475a9c07f3",
          "blockNumber": "0x2676467",
          "blockTimestamp": "0x69e227ae",
          "transactionHash": "0x7446db3d0b4bfc62d4d1ee331993d3740160e08bd0417b211c2b6605c7c49011",
          "transactionIndex": "0xf",
          "logIndex": "0x96",
          "removed": false
        }
      ],
      "logsBloom": "0x00000004000000100000000000000000020000040000000000200000000000000000000000000000000000000000000000000800000000000000000000000000000000000000000000000001000040000000002000000000000000000000000000000000000000000008000000000000000000000000000000000000000000000000000000000000000000000000000000000000000000000000000000000000004000000000000000000000000000000000000000000000001000000000000001000000000008000000000000000000000000000000000100000000000000000000000000000000000000000000000000000000000000000000000000000000",
      "type": "0x2",
      "transactionHash": "0x7446db3d0b4bfc62d4d1ee331993d3740160e08bd0417b211c2b6605c7c49011",
      "transactionIndex": "0xf",
      "blockHash": "0xe0ec64526f205043830d9ece718ab579731b0c2aebf127eb0d1302475a9c07f3",
      "blockNumber": "0x2676467",
      "gasUsed": "0xc923",
      "effectiveGasPrice": "0x5b8d80",
      "blobGasUsed": "0x3d48",
      "from": "0x56edd8e0b4ea14ca259f313291b9468553e2ae94",
      "to": "0x958dbb461e039902113e65518ec64d3379fdf2e2",
      "contractAddress": null,
      "daFootprintGasScalar": "0x94",
      "l1BaseFeeScalar": "0x44d",
      "l1BlobBaseFee": "0x24bec5",
      "l1BlobBaseFeeScalar": "0xa118b",
      "l1Fee": "0xe563c6e",
      "l1GasPrice": "0x247653f",
      "l1GasUsed": "0x6a4"
    }
  ],
  "libraries": [],
  "pending": [],
  "returns": {},
  "timestamp": 1776428974185,
  "chain": 84532,
  "commit": "bca6a5e"
}